{
    "_format": "hh-sol-artifact-1",
    "contractName": "NFTick",
    "sourceName": "contracts/nftick.sol",
    "abi": [
        {
            "inputs": [],
            "stateMutability": "nonpayable",
            "type": "constructor"
        },
        {
            "anonymous": false,
            "inputs": [
                {
                    "indexed": true,
                    "internalType": "address",
                    "name": "account",
                    "type": "address"
                },
                {
                    "indexed": true,
                    "internalType": "address",
                    "name": "operator",
                    "type": "address"
                },
                {
                    "indexed": false,
                    "internalType": "bool",
                    "name": "approved",
                    "type": "bool"
                }
            ],
            "name": "ApprovalForAll",
            "type": "event"
        },
        {
            "anonymous": false,
            "inputs": [
                {
                    "indexed": true,
                    "internalType": "address",
                    "name": "operator",
                    "type": "address"
                },
                {
                    "indexed": true,
                    "internalType": "address",
                    "name": "from",
                    "type": "address"
                },
                {
                    "indexed": true,
                    "internalType": "address",
                    "name": "to",
                    "type": "address"
                },
                {
                    "indexed": false,
                    "internalType": "uint256[]",
                    "name": "ids",
                    "type": "uint256[]"
                },
                {
                    "indexed": false,
                    "internalType": "uint256[]",
                    "name": "values",
                    "type": "uint256[]"
                }
            ],
            "name": "TransferBatch",
            "type": "event"
        },
        {
            "anonymous": false,
            "inputs": [
                {
                    "indexed": true,
                    "internalType": "address",
                    "name": "operator",
                    "type": "address"
                },
                {
                    "indexed": true,
                    "internalType": "address",
                    "name": "from",
                    "type": "address"
                },
                {
                    "indexed": true,
                    "internalType": "address",
                    "name": "to",
                    "type": "address"
                },
                {
                    "indexed": false,
                    "internalType": "uint256",
                    "name": "id",
                    "type": "uint256"
                },
                {
                    "indexed": false,
                    "internalType": "uint256",
                    "name": "value",
                    "type": "uint256"
                }
            ],
            "name": "TransferSingle",
            "type": "event"
        },
        {
            "anonymous": false,
            "inputs": [
                {
                    "indexed": false,
                    "internalType": "string",
                    "name": "value",
                    "type": "string"
                },
                {
                    "indexed": true,
                    "internalType": "uint256",
                    "name": "id",
                    "type": "uint256"
                }
            ],
            "name": "URI",
            "type": "event"
        },
        {
            "anonymous": false,
            "inputs": [
                {
                    "indexed": true,
                    "internalType": "uint256",
                    "name": "tokenCount",
                    "type": "uint256"
                },
                {
                    "indexed": true,
                    "internalType": "uint256",
                    "name": "tokenId",
                    "type": "uint256"
                },
                {
                    "indexed": false,
                    "internalType": "address",
                    "name": "creator",
                    "type": "address"
                },
                {
                    "indexed": false,
                    "internalType": "uint256",
                    "name": "price",
                    "type": "uint256"
                },
                {
                    "indexed": true,
                    "internalType": "string",
                    "name": "data",
                    "type": "string"
                }
            ],
            "name": "nftickCreated",
            "type": "event"
        },
        {
            "inputs": [
                {
                    "internalType": "uint256",
                    "name": "",
                    "type": "uint256"
                }
            ],
            "name": "AllEventsCreated",
            "outputs": [
                {
                    "internalType": "uint256",
                    "name": "totalTokens",
                    "type": "uint256"
                },
                {
                    "internalType": "address payable",
                    "name": "creator",
                    "type": "address"
                },
                {
                    "internalType": "string",
                    "name": "data",
                    "type": "string"
                },
                {
                    "internalType": "uint256",
                    "name": "tokenId",
                    "type": "uint256"
                },
                {
                    "internalType": "uint256",
                    "name": "listPrice",
                    "type": "uint256"
                }
            ],
            "stateMutability": "view",
            "type": "function"
        },
        {
            "inputs": [
                {
                    "internalType": "address",
                    "name": "account",
                    "type": "address"
                },
                {
                    "internalType": "uint256",
                    "name": "id",
                    "type": "uint256"
                }
            ],
            "name": "balanceOf",
            "outputs": [
                {
                    "internalType": "uint256",
                    "name": "",
                    "type": "uint256"
                }
            ],
            "stateMutability": "view",
            "type": "function"
        },
        {
            "inputs": [
                {
                    "internalType": "address[]",
                    "name": "accounts",
                    "type": "address[]"
                },
                {
                    "internalType": "uint256[]",
                    "name": "ids",
                    "type": "uint256[]"
                }
            ],
            "name": "balanceOfBatch",
            "outputs": [
                {
                    "internalType": "uint256[]",
                    "name": "",
                    "type": "uint256[]"
                }
            ],
            "stateMutability": "view",
            "type": "function"
        },
        {
            "inputs": [
                {
                    "internalType": "uint256",
                    "name": "_tokenId",
                    "type": "uint256"
                }
            ],
            "name": "buyNftick",
            "outputs": [
                {
                    "internalType": "bool",
                    "name": "approved",
                    "type": "bool"
                }
            ],
            "stateMutability": "payable",
            "type": "function"
        },
        {
            "inputs": [
                {
                    "internalType": "string",
                    "name": "_data",
                    "type": "string"
                },
                {
                    "internalType": "uint256",
                    "name": "price",
                    "type": "uint256"
                },
                {
                    "internalType": "uint256",
                    "name": "_totalTokens",
                    "type": "uint256"
                }
            ],
            "name": "createEvent",
            "outputs": [],
            "stateMutability": "payable",
            "type": "function"
        },
        {
            "inputs": [
                {
                    "internalType": "uint256",
                    "name": "id",
                    "type": "uint256"
                }
            ],
            "name": "exists",
            "outputs": [
                {
                    "internalType": "bool",
                    "name": "",
                    "type": "bool"
                }
            ],
            "stateMutability": "view",
            "type": "function"
        },
        {
            "inputs": [],
            "name": "fetchAllEventsCreated",
            "outputs": [
                {
                    "components": [
                        {
                            "internalType": "uint256",
                            "name": "totalTokens",
                            "type": "uint256"
                        },
                        {
                            "internalType": "address payable",
                            "name": "creator",
                            "type": "address"
                        },
                        {
                            "internalType": "string",
                            "name": "data",
                            "type": "string"
                        },
                        {
                            "internalType": "uint256",
                            "name": "tokenId",
                            "type": "uint256"
                        },
                        {
                            "internalType": "uint256",
                            "name": "listPrice",
                            "type": "uint256"
                        }
                    ],
                    "internalType": "struct NFTick.events[]",
                    "name": "",
                    "type": "tuple[]"
                }
            ],
            "stateMutability": "view",
            "type": "function"
        },
        {
            "inputs": [],
            "name": "fetchAllMyEvents",
            "outputs": [
                {
                    "components": [
                        {
                            "internalType": "uint256",
                            "name": "totalTokens",
                            "type": "uint256"
                        },
                        {
                            "internalType": "address payable",
                            "name": "creator",
                            "type": "address"
                        },
                        {
                            "internalType": "string",
                            "name": "data",
                            "type": "string"
                        },
                        {
                            "internalType": "uint256",
                            "name": "tokenId",
                            "type": "uint256"
                        },
                        {
                            "internalType": "uint256",
                            "name": "listPrice",
                            "type": "uint256"
                        }
                    ],
                    "internalType": "struct NFTick.events[]",
                    "name": "",
                    "type": "tuple[]"
                }
            ],
            "stateMutability": "view",
            "type": "function"
        },
        {
            "inputs": [],
            "name": "fetchAllMyNfticks",
            "outputs": [
                {
                    "internalType": "uint256[]",
                    "name": "",
                    "type": "uint256[]"
                }
            ],
            "stateMutability": "view",
            "type": "function"
        },
        {
            "inputs": [
                {
                    "internalType": "address",
                    "name": "account",
                    "type": "address"
                },
                {
                    "internalType": "uint256",
                    "name": "id",
                    "type": "uint256"
                }
            ],
            "name": "getBalance",
            "outputs": [],
            "stateMutability": "view",
            "type": "function"
        },
        {
            "inputs": [],
            "name": "getListingPrice",
            "outputs": [
                {
                    "internalType": "uint256",
                    "name": "",
                    "type": "uint256"
                }
            ],
            "stateMutability": "view",
            "type": "function"
        },
        {
            "inputs": [
                {
                    "internalType": "address",
                    "name": "account",
                    "type": "address"
                },
                {
                    "internalType": "address",
                    "name": "operator",
                    "type": "address"
                }
            ],
            "name": "isApprovedForAll",
            "outputs": [
                {
                    "internalType": "bool",
                    "name": "",
                    "type": "bool"
                }
            ],
            "stateMutability": "view",
            "type": "function"
        },
        {
            "inputs": [
                {
                    "internalType": "address",
                    "name": "",
                    "type": "address"
                },
                {
                    "internalType": "address",
                    "name": "",
                    "type": "address"
                },
                {
                    "internalType": "uint256[]",
                    "name": "",
                    "type": "uint256[]"
                },
                {
                    "internalType": "uint256[]",
                    "name": "",
                    "type": "uint256[]"
                },
                {
                    "internalType": "bytes",
                    "name": "",
                    "type": "bytes"
                }
            ],
            "name": "onERC1155BatchReceived",
            "outputs": [
                {
                    "internalType": "bytes4",
                    "name": "",
                    "type": "bytes4"
                }
            ],
            "stateMutability": "nonpayable",
            "type": "function"
        },
        {
            "inputs": [
                {
                    "internalType": "address",
                    "name": "",
                    "type": "address"
                },
                {
                    "internalType": "address",
                    "name": "",
                    "type": "address"
                },
                {
                    "internalType": "uint256",
                    "name": "",
                    "type": "uint256"
                },
                {
                    "internalType": "uint256",
                    "name": "",
                    "type": "uint256"
                },
                {
                    "internalType": "bytes",
                    "name": "",
                    "type": "bytes"
                }
            ],
            "name": "onERC1155Received",
            "outputs": [
                {
                    "internalType": "bytes4",
                    "name": "",
                    "type": "bytes4"
                }
            ],
            "stateMutability": "nonpayable",
            "type": "function"
        },
        {
            "inputs": [
                {
                    "internalType": "address",
                    "name": "from",
                    "type": "address"
                },
                {
                    "internalType": "address",
                    "name": "to",
                    "type": "address"
                },
                {
                    "internalType": "uint256[]",
                    "name": "ids",
                    "type": "uint256[]"
                },
                {
                    "internalType": "uint256[]",
                    "name": "amounts",
                    "type": "uint256[]"
                },
                {
                    "internalType": "bytes",
                    "name": "data",
                    "type": "bytes"
                }
            ],
            "name": "safeBatchTransferFrom",
            "outputs": [],
            "stateMutability": "nonpayable",
            "type": "function"
        },
        {
            "inputs": [
                {
                    "internalType": "address",
                    "name": "from",
                    "type": "address"
                },
                {
                    "internalType": "address",
                    "name": "to",
                    "type": "address"
                },
                {
                    "internalType": "uint256",
                    "name": "id",
                    "type": "uint256"
                },
                {
                    "internalType": "uint256",
                    "name": "amount",
                    "type": "uint256"
                },
                {
                    "internalType": "bytes",
                    "name": "data",
                    "type": "bytes"
                }
            ],
            "name": "safeTransferFrom",
            "outputs": [],
            "stateMutability": "nonpayable",
            "type": "function"
        },
        {
            "inputs": [
                {
                    "internalType": "address",
                    "name": "operator",
                    "type": "address"
                },
                {
                    "internalType": "bool",
                    "name": "approved",
                    "type": "bool"
                }
            ],
            "name": "setApprovalForAll",
            "outputs": [],
            "stateMutability": "nonpayable",
            "type": "function"
        },
        {
            "inputs": [
                {
                    "internalType": "bytes4",
                    "name": "interfaceId",
                    "type": "bytes4"
                }
            ],
            "name": "supportsInterface",
            "outputs": [
                {
                    "internalType": "bool",
                    "name": "",
                    "type": "bool"
                }
            ],
            "stateMutability": "view",
            "type": "function"
        },
        {
            "inputs": [],
            "name": "totalNoOfEvents",
            "outputs": [
                {
                    "internalType": "uint256",
                    "name": "",
                    "type": "uint256"
                }
            ],
            "stateMutability": "view",
            "type": "function"
        },
        {
            "inputs": [
                {
                    "internalType": "uint256",
                    "name": "id",
                    "type": "uint256"
                }
            ],
            "name": "totalSupply",
            "outputs": [
                {
                    "internalType": "uint256",
                    "name": "",
                    "type": "uint256"
                }
            ],
            "stateMutability": "view",
            "type": "function"
        },
        {
            "inputs": [
                {
                    "internalType": "uint256",
                    "name": "_tokenId",
                    "type": "uint256"
                }
            ],
            "name": "uri",
            "outputs": [
                {
                    "internalType": "string",
                    "name": "",
                    "type": "string"
                }
            ],
            "stateMutability": "view",
            "type": "function"
        }
    ],
    "bytecode": "0x6080604052662386f26fc100006008553480156200001c57600080fd5b50604080516020810190915260008152620000378162000068565b50600480546001600160a01b0319908116331790915560058054909116301790556000600681905560075562000164565b80516200007d90600290602084019062000081565b5050565b8280546200008f9062000127565b90600052602060002090601f016020900481019282620000b35760008555620000fe565b82601f10620000ce57805160ff1916838001178555620000fe565b82800160010185558215620000fe579182015b82811115620000fe578251825591602001919060010190620000e1565b506200010c92915062000110565b5090565b5b808211156200010c576000815560010162000111565b600181811c908216806200013c57607f821691505b602082108114156200015e57634e487b7160e01b600052602260045260246000fd5b50919050565b61239680620001746000396000f3fe6080604052600436106101295760003560e01c806365f5d0ea116100ab578063c641c1c51161006f578063c641c1c514610363578063da734bde14610378578063dc1abe8f1461038b578063e985e9c5146103bc578063f23a6e6114610405578063f242432a1461043157600080fd5b806365f5d0ea146102a95780639e9580f6146102be578063a22cb465146102d1578063bc197c81146102f1578063bd85b0391461033657600080fd5b80632b04e840116100f25780632b04e840146101f55780632eb2c2d6146102175780634e1273f4146102375780634f558e7914610264578063622816661461029357600080fd5b8062fdd58e1461012e57806301ffc9a7146101615780630e89341c1461019157806310650081146101be57806312e85585146101e0575b600080fd5b34801561013a57600080fd5b5061014e610149366004611c29565b610451565b6040519081526020015b60405180910390f35b34801561016d57600080fd5b5061018161017c366004611d1d565b6104e7565b6040519015158152602001610158565b34801561019d57600080fd5b506101b16101ac366004611db4565b61052d565b6040516101589190611fd1565b3480156101ca57600080fd5b506101d36105cf565b6040516101589190611ef1565b3480156101ec57600080fd5b5060085461014e565b34801561020157600080fd5b50610215610210366004611c29565b6107f0565b005b34801561022357600080fd5b50610215610232366004611ae6565b6107ff565b34801561024357600080fd5b50610257610252366004611c52565b61084b565b6040516101589190611f90565b34801561027057600080fd5b5061018161027f366004611db4565b600090815260036020526040902054151590565b34801561029f57600080fd5b5061014e60065481565b3480156102b557600080fd5b506101d36109a5565b6102156102cc366004611d55565b610b53565b3480156102dd57600080fd5b506102156102ec366004611bef565b610d13565b3480156102fd57600080fd5b5061031d61030c366004611ae6565b63bc197c8160e01b95945050505050565b6040516001600160e01b03199091168152602001610158565b34801561034257600080fd5b5061014e610351366004611db4565b60009081526003602052604090205490565b34801561036f57600080fd5b50610257610d22565b610181610386366004611db4565b610dd6565b34801561039757600080fd5b506103ab6103a6366004611db4565b610f3a565b604051610158959493929190612152565b3480156103c857600080fd5b506101816103d7366004611ab4565b6001600160a01b03918216600090815260016020908152604080832093909416825291909152205460ff1690565b34801561041157600080fd5b5061031d610420366004611b8c565b63f23a6e6160e01b95945050505050565b34801561043d57600080fd5b5061021561044c366004611b8c565b610ffb565b60006001600160a01b0383166104c15760405162461bcd60e51b815260206004820152602a60248201527f455243313135353a2061646472657373207a65726f206973206e6f742061207660448201526930b634b21037bbb732b960b11b60648201526084015b60405180910390fd5b506000908152602081815260408083206001600160a01b03949094168352929052205490565b60006001600160e01b03198216636cdb3d1360e11b148061051857506001600160e01b031982166303a24d0760e21b145b80610527575061052782611040565b92915050565b600081815260096020526040902080546060919061054a906121fc565b80601f0160208091040260200160405190810160405280929190818152602001828054610576906121fc565b80156105c35780601f10610598576101008083540402835291602001916105c3565b820191906000526020600020905b8154815290600101906020018083116105a657829003601f168201915b50505050509050919050565b606060008060005b600654811015610623576000818152600a60205260409020600101546001600160a01b03163314156106115761060e6001846121b4565b92505b8061061b8161225e565b9150506105d7565b5060008267ffffffffffffffff81111561064d57634e487b7160e01b600052604160045260246000fd5b60405190808252806020026020018201604052801561068657816020015b6106736118cf565b81526020019060019003908161066b5790505b50905060005b6006548110156107e8576000818152600a60205260409020600101546001600160a01b03163314156107d6576000818152600a6020908152604091829020825160a0810184528154815260018201546001600160a01b0316928101929092526002810180548594929392849290840191610705906121fc565b80601f0160208091040260200160405190810160405280929190818152602001828054610731906121fc565b801561077e5780601f106107535761010080835404028352916020019161077e565b820191906000526020600020905b81548152906001019060200180831161076157829003601f168201915b50505050508152602001600382015481526020016004820154815250508486815181106107bb57634e487b7160e01b600052603260045260246000fd5b60209081029190910101526107d16001866121b4565b945050505b806107e08161225e565b91505061068c565b509392505050565b6107fa8282610451565b505050565b6001600160a01b03851633148061081b575061081b85336103d7565b6108375760405162461bcd60e51b81526004016104b890611fe4565b6108448585858585611065565b5050505050565b606081518351146108b05760405162461bcd60e51b815260206004820152602960248201527f455243313135353a206163636f756e747320616e6420696473206c656e677468604482015268040dad2e6dac2e8c6d60bb1b60648201526084016104b8565b6000835167ffffffffffffffff8111156108da57634e487b7160e01b600052604160045260246000fd5b604051908082528060200260200182016040528015610903578160200160208202803683370190505b50905060005b84518110156107e85761096a85828151811061093557634e487b7160e01b600052603260045260246000fd5b602002602001015185838151811061095d57634e487b7160e01b600052603260045260246000fd5b6020026020010151610451565b82828151811061098a57634e487b7160e01b600052603260045260246000fd5b602090810291909101015261099e8161225e565b9050610909565b606060008060065467ffffffffffffffff8111156109d357634e487b7160e01b600052604160045260246000fd5b604051908082528060200260200182016040528015610a0c57816020015b6109f96118cf565b8152602001906001900390816109f15790505b50905060005b600654811015610b4c576000818152600a6020908152604091829020825160a0810184528154815260018201546001600160a01b0316928101929092526002810180548594929392849290840191610a69906121fc565b80601f0160208091040260200160405190810160405280929190818152602001828054610a95906121fc565b8015610ae25780601f10610ab757610100808354040283529160200191610ae2565b820191906000526020600020905b815481529060010190602001808311610ac557829003601f168201915b5050505050815260200160038201548152602001600482015481525050848681518110610b1f57634e487b7160e01b600052603260045260246000fd5b6020908102919091010152610b356001866121b4565b945050508080610b449061225e565b915050610a12565b5092915050565b60078054906000610b638361225e565b91905055506000610b7560075461121d565b90506000610b828361121d565b905084610b9160075487611276565b600554610ba9906001600160a01b0316848484611295565b600554610bc1906001600160a01b0316336001611436565b6005546040516001600160a01b039091169060009033907f4a39dc06d4c0dbc64b70af90fd698a233a518aa5d07e595d983b8c0526c8f7fb90610c079088908890611fa3565b60405180910390a46040805160a0810182528581523360208083019182528284018a81526007546060850152608084018a90526006546000908152600a8352949094208351815591516001830180546001600160a01b0319166001600160a01b039092169190911790559251805192939192610c899260028501920190611907565b506060820151600382015560809091015160049091015560068054906000610cb08361225e565b919050555085604051610cc39190611e32565b60408051918290038220600754338452602084018990529092909187917fd4b1a543d0c574f4227c936c467fd749cbe3e859db55e17f5487f2d1b14cd2d9910160405180910390a4505050505050565b610d1e338383611436565b5050565b6060600060075467ffffffffffffffff811115610d4f57634e487b7160e01b600052604160045260246000fd5b604051908082528060200260200182016040528015610d78578160200160208202803683370190505b50905060005b6007548111610dd05780610d923382610451565b838381518110610db257634e487b7160e01b600052603260045260246000fd5b60209081029190910101525080610dc88161225e565b915050610d7e565b50919050565b6000818152600a60205260408120600481015460029091018054839190610dfc906121fc565b80601f0160208091040260200160405190810160405280929190818152602001828054610e28906121fc565b8015610e755780601f10610e4a57610100808354040283529160200191610e75565b820191906000526020600020905b815481529060010190602001808311610e5857829003601f168201915b5050505050905081341015610ecc5760405162461bcd60e51b815260206004820181905260248201527f4e6f7420656e6f7567682066756e647320666f72207472616e73616374696f6e60448201526064016104b8565b600554610ee6906001600160a01b03163386600185611517565b600554604080518681526001602082015233926001600160a01b03169182917fc3d58168c5ae7397731d063d5bbf3d657854427343f4c083240f7aacaa2d0f62910160405180910390a46001949350505050565b600a6020526000908152604090208054600182015460028301805492936001600160a01b0390921692610f6c906121fc565b80601f0160208091040260200160405190810160405280929190818152602001828054610f98906121fc565b8015610fe55780601f10610fba57610100808354040283529160200191610fe5565b820191906000526020600020905b815481529060010190602001808311610fc857829003601f168201915b5050505050908060030154908060040154905085565b6001600160a01b038516331480611017575061101785336103d7565b6110335760405162461bcd60e51b81526004016104b890611fe4565b6108448585858585611517565b60006001600160e01b03198216630271189760e51b1480610527575061052782611641565b81518351146110865760405162461bcd60e51b81526004016104b89061210a565b6001600160a01b0384166110ac5760405162461bcd60e51b81526004016104b89061207b565b3360005b84518110156111af5760008582815181106110db57634e487b7160e01b600052603260045260246000fd5b60200260200101519050600085838151811061110757634e487b7160e01b600052603260045260246000fd5b602090810291909101810151600084815280835260408082206001600160a01b038e1683529093529190912054909150818110156111575760405162461bcd60e51b81526004016104b8906120c0565b6000838152602081815260408083206001600160a01b038e8116855292528083208585039055908b168252812080548492906111949084906121b4565b92505081905550505050806111a89061225e565b90506110b0565b50846001600160a01b0316866001600160a01b0316826001600160a01b03167f4a39dc06d4c0dbc64b70af90fd698a233a518aa5d07e595d983b8c0526c8f7fb87876040516111ff929190611fa3565b60405180910390a4611215818787878787611691565b505050505050565b6040805160018082528183019092526060916000919060208083019080368337019050509050828160008151811061126557634e487b7160e01b600052603260045260246000fd5b602090810291909101015292915050565b600082815260096020908152604090912082516107fa92840190611907565b6001600160a01b0384166112f55760405162461bcd60e51b815260206004820152602160248201527f455243313135353a206d696e7420746f20746865207a65726f206164647265736044820152607360f81b60648201526084016104b8565b81518351146113165760405162461bcd60e51b81526004016104b89061210a565b3360005b84518110156113ce5783818151811061134357634e487b7160e01b600052603260045260246000fd5b602002602001015160008087848151811061136e57634e487b7160e01b600052603260045260246000fd5b602002602001015181526020019081526020016000206000886001600160a01b03166001600160a01b0316815260200190815260200160002060008282546113b691906121b4565b909155508190506113c68161225e565b91505061131a565b50846001600160a01b031660006001600160a01b0316826001600160a01b03167f4a39dc06d4c0dbc64b70af90fd698a233a518aa5d07e595d983b8c0526c8f7fb878760405161141f929190611fa3565b60405180910390a461084481600087878787611691565b816001600160a01b0316836001600160a01b031614156114aa5760405162461bcd60e51b815260206004820152602960248201527f455243313135353a2073657474696e6720617070726f76616c20737461747573604482015268103337b91039b2b63360b91b60648201526084016104b8565b6001600160a01b03838116600081815260016020908152604080832094871680845294825291829020805460ff191686151590811790915591519182527f17307eab39ab6107e8899845ad3d59bd9653f200f220920489ca2b5937696c31910160405180910390a3505050565b6001600160a01b03841661153d5760405162461bcd60e51b81526004016104b89061207b565b3360006115498561121d565b905060006115568561121d565b90506000868152602081815260408083206001600160a01b038c168452909152902054858110156115995760405162461bcd60e51b81526004016104b8906120c0565b6000878152602081815260408083206001600160a01b038d8116855292528083208985039055908a168252812080548892906115d69084906121b4565b909155505060408051888152602081018890526001600160a01b03808b16928c821692918816917fc3d58168c5ae7397731d063d5bbf3d657854427343f4c083240f7aacaa2d0f62910160405180910390a4611636848a8a8a8a8a611805565b505050505050505050565b60006001600160e01b03198216636cdb3d1360e11b148061167257506001600160e01b031982166303a24d0760e21b145b8061052757506301ffc9a760e01b6001600160e01b0319831614610527565b6001600160a01b0384163b156112155760405163bc197c8160e01b81526001600160a01b0385169063bc197c81906116d59089908990889088908890600401611e4e565b602060405180830381600087803b1580156116ef57600080fd5b505af192505050801561171f575060408051601f3d908101601f1916820190925261171c91810190611d39565b60015b6117cc5761172b6122a5565b806308c379a0141561176557506117406122bd565b8061174b5750611767565b8060405162461bcd60e51b81526004016104b89190611fd1565b505b60405162461bcd60e51b815260206004820152603460248201527f455243313135353a207472616e7366657220746f206e6f6e20455243313135356044820152732932b1b2b4bb32b91034b6b83632b6b2b73a32b960611b60648201526084016104b8565b6001600160e01b0319811663bc197c8160e01b146117fc5760405162461bcd60e51b81526004016104b890612033565b50505050505050565b6001600160a01b0384163b156112155760405163f23a6e6160e01b81526001600160a01b0385169063f23a6e61906118499089908990889088908890600401611eac565b602060405180830381600087803b15801561186357600080fd5b505af1925050508015611893575060408051601f3d908101601f1916820190925261189091810190611d39565b60015b61189f5761172b6122a5565b6001600160e01b0319811663f23a6e6160e01b146117fc5760405162461bcd60e51b81526004016104b890612033565b6040518060a001604052806000815260200160006001600160a01b031681526020016060815260200160008152602001600081525090565b828054611913906121fc565b90600052602060002090601f016020900481019282611935576000855561197b565b82601f1061194e57805160ff191683800117855561197b565b8280016001018555821561197b579182015b8281111561197b578251825591602001919060010190611960565b5061198792915061198b565b5090565b5b80821115611987576000815560010161198c565b600067ffffffffffffffff8311156119ba576119ba61228f565b6040516119d1601f8501601f191660200182612231565b8091508381528484840111156119e657600080fd5b83836020830137600060208583010152509392505050565b80356001600160a01b0381168114611a1557600080fd5b919050565b600082601f830112611a2a578081fd5b81356020611a3782612190565b604051611a448282612231565b8381528281019150858301600585901b87018401881015611a63578586fd5b855b85811015611a8157813584529284019290840190600101611a65565b5090979650505050505050565b600082601f830112611a9e578081fd5b611aad838335602085016119a0565b9392505050565b60008060408385031215611ac6578182fd5b611acf836119fe565b9150611add602084016119fe565b90509250929050565b600080600080600060a08688031215611afd578081fd5b611b06866119fe565b9450611b14602087016119fe565b9350604086013567ffffffffffffffff80821115611b30578283fd5b611b3c89838a01611a1a565b94506060880135915080821115611b51578283fd5b611b5d89838a01611a1a565b93506080880135915080821115611b72578283fd5b50611b7f88828901611a8e565b9150509295509295909350565b600080600080600060a08688031215611ba3578081fd5b611bac866119fe565b9450611bba602087016119fe565b93506040860135925060608601359150608086013567ffffffffffffffff811115611be3578182fd5b611b7f88828901611a8e565b60008060408385031215611c01578182fd5b611c0a836119fe565b915060208301358015158114611c1e578182fd5b809150509250929050565b60008060408385031215611c3b578182fd5b611c44836119fe565b946020939093013593505050565b60008060408385031215611c64578182fd5b823567ffffffffffffffff80821115611c7b578384fd5b818501915085601f830112611c8e578384fd5b81356020611c9b82612190565b604051611ca88282612231565b8381528281019150858301600585901b870184018b1015611cc7578889fd5b8896505b84871015611cf057611cdc816119fe565b835260019690960195918301918301611ccb565b5096505086013592505080821115611d06578283fd5b50611d1385828601611a1a565b9150509250929050565b600060208284031215611d2e578081fd5b8135611aad81612347565b600060208284031215611d4a578081fd5b8151611aad81612347565b600080600060608486031215611d69578081fd5b833567ffffffffffffffff811115611d7f578182fd5b8401601f81018613611d8f578182fd5b611d9e868235602084016119a0565b9660208601359650604090950135949350505050565b600060208284031215611dc5578081fd5b5035919050565b6000815180845260208085019450808401835b83811015611dfb57815187529582019590820190600101611ddf565b509495945050505050565b60008151808452611e1e8160208601602086016121cc565b601f01601f19169290920160200192915050565b60008251611e448184602087016121cc565b9190910192915050565b6001600160a01b0386811682528516602082015260a060408201819052600090611e7a90830186611dcc565b8281036060840152611e8c8186611dcc565b90508281036080840152611ea08185611e06565b98975050505050505050565b6001600160a01b03868116825285166020820152604081018490526060810183905260a060808201819052600090611ee690830184611e06565b979650505050505050565b60006020808301818452808551808352604092508286019150828160051b870101848801865b83811015611f8257888303603f19018552815180518452878101516001600160a01b0316888501528681015160a088860181905290611f5882870182611e06565b60608481015190880152608093840151939096019290925250509386019390860190600101611f17565b509098975050505050505050565b602081526000611aad6020830184611dcc565b604081526000611fb66040830185611dcc565b8281036020840152611fc88185611dcc565b95945050505050565b602081526000611aad6020830184611e06565b6020808252602f908201527f455243313135353a2063616c6c6572206973206e6f7420746f6b656e206f776e60408201526e195c881b9bdc88185c1c1c9bdd9959608a1b606082015260800190565b60208082526028908201527f455243313135353a204552433131353552656365697665722072656a656374656040820152676420746f6b656e7360c01b606082015260800190565b60208082526025908201527f455243313135353a207472616e7366657220746f20746865207a65726f206164604082015264647265737360d81b606082015260800190565b6020808252602a908201527f455243313135353a20696e73756666696369656e742062616c616e636520666f60408201526939103a3930b739b332b960b11b606082015260800190565b60208082526028908201527f455243313135353a2069647320616e6420616d6f756e7473206c656e677468206040820152670dad2e6dac2e8c6d60c31b606082015260800190565b8581526001600160a01b038516602082015260a06040820181905260009061217c90830186611e06565b606083019490945250608001529392505050565b600067ffffffffffffffff8211156121aa576121aa61228f565b5060051b60200190565b600082198211156121c7576121c7612279565b500190565b60005b838110156121e75781810151838201526020016121cf565b838111156121f6576000848401525b50505050565b600181811c9082168061221057607f821691505b60208210811415610dd057634e487b7160e01b600052602260045260246000fd5b601f8201601f1916810167ffffffffffffffff811182821017156122575761225761228f565b6040525050565b600060001982141561227257612272612279565b5060010190565b634e487b7160e01b600052601160045260246000fd5b634e487b7160e01b600052604160045260246000fd5b600060033d11156122ba57600481823e5160e01c5b90565b600060443d10156122cb5790565b6040516003193d81016004833e81513d67ffffffffffffffff81602484011181841117156122fb57505050505090565b82850191508151818111156123135750505050505090565b843d870101602082850101111561232d5750505050505090565b61233c60208286010187612231565b509095945050505050565b6001600160e01b03198116811461235d57600080fd5b5056fea264697066735822122034431445f89353e8d30e95ea9d8562fe5f0fcc61f5e7d2fbc245c952a9a50e7e64736f6c63430008040033",
    "linkReferences": {},
    "deployedLinkReferences": {}
}